:1000000012C041C062C02AC029C028C027C026C073
:1000100025C024C023C022C021C020C01FC01EC0D4
:100020001DC01CC01BC011241FBECFE5D4E0DEBF25
:10003000CDBF10E0A0E6B0E0E8EBF2E002C0059032
:100040000D92A236B107D9F720E0A2E6B0E001C0D8
:100050001D92A736B207E1F7A8D02CC1D1CF87E017
:1000600088BB17BA8CE385BB14BA80EE82BB81E0F3
:1000700081BB8FE085BD9EE393BD92EC94BD85BFAF
:1000800080EC8BBF08951F920F920FB60F92112430
:100090008F939F9380916500880F80936500909166
:1000A000640080916500892341F490989F918F911D
:1000B0000F900FBE0F901F901895909A9F918F915F
:1000C0000F900FBE0F901F9018951F920F920FB6B2
:1000D0000F9211248F939F9381E0809365009091FC
:1000E000640080916500892369F490988091620092
:1000F0008F5F809362009F918F910F900FBE0F9042
:100100001F901895909AF2CF08B607FE089588B709
:10011000806888BF8EE383BD82EC84BD9B9937C025
:1001200050E023B320729A9937C040E09C9937C0C1
:1001300030E090B3892F881F8827881F880F96B3D7
:100140009170922B952B942B932B892B85992BC0F7
:1001500090E0892B869925C090E0892B80936400DC
:10016000B29909C090916400809163009D7F827074
:10017000892B80936400B199C9CF909164008091DC
:1001800063009E7F8170892B80936400089550E105
:1001900023B320729A9BC9CF40E49C9BC9CF30E81F
:1001A000C8CF94E0DACF98E0D4CF87E088BB17BA05
:1001B0008CE385BB14BA80EE82BB81E081BB8FE00B
:1001C00085BD9EE393BD92EC94BD85BF80EC8BBF53
:1001D00078946EE352EC1CC080916200882399F001
:1001E00080916000909161002091660002C0969518
:1001F00087952A95E2F78170982F990F890F809340
:10020000630010926200809166008F3008F041C058
:1002100008B607FEE1CF88B7806888BF63BD54BDCC
:100220009B993AC070E023B320729A993AC040E09B
:100230009C993AC030E090B3892F881F8827881F87
:10024000880F96B39170922B972B942B932B892B1D
:1002500085992EC090E0892B869928C090E0892B43
:1002600080936400B29909C090916400809163000A
:100270009D7F8270892B80936400B199ADCF90915E
:100280006400809163009E7F8170892B809364005D
:10029000A3CF10926600BCCF70E123B320729A9B6B
:1002A000C6CF40E49C9BC6CF30E8C5CF94E0D7CF03
:0802B00098E0D1CFF894FFCFD4
:0202B80095A906
:00000001FF
